{
  "_format": "hh-sol-artifact-1",
  "contractName": "NFT",
  "sourceName": "contracts/NFT.sol",
  "abi": [
    {
      "inputs": [
        {
          "internalType": "address",
          "name": "marketplaceAddress",
          "type": "address"
        }
      ],
      "stateMutability": "nonpayable",
      "type": "constructor"
    },
    {
      "anonymous": false,
      "inputs": [
        {
          "indexed": true,
          "internalType": "address",
          "name": "owner",
          "type": "address"
        },
        {
          "indexed": true,
          "internalType": "address",
          "name": "approved",
          "type": "address"
        },
        {
          "indexed": true,
          "internalType": "uint256",
          "name": "tokenId",
          "type": "uint256"
        }
      ],
      "name": "Approval",
      "type": "event"
    },
    {
      "anonymous": false,
      "inputs": [
        {
          "indexed": true,
          "internalType": "address",
          "name": "owner",
          "type": "address"
        },
        {
          "indexed": true,
          "internalType": "address",
          "name": "operator",
          "type": "address"
        },
        {
          "indexed": false,
          "internalType": "bool",
          "name": "approved",
          "type": "bool"
        }
      ],
      "name": "ApprovalForAll",
      "type": "event"
    },
    {
      "anonymous": false,
      "inputs": [
        {
          "indexed": true,
          "internalType": "address",
          "name": "from",
          "type": "address"
        },
        {
          "indexed": true,
          "internalType": "address",
          "name": "to",
          "type": "address"
        },
        {
          "indexed": true,
          "internalType": "uint256",
          "name": "tokenId",
          "type": "uint256"
        }
      ],
      "name": "Transfer",
      "type": "event"
    },
    {
      "inputs": [
        {
          "internalType": "address",
          "name": "to",
          "type": "address"
        },
        {
          "internalType": "uint256",
          "name": "tokenId",
          "type": "uint256"
        }
      ],
      "name": "approve",
      "outputs": [],
      "stateMutability": "nonpayable",
      "type": "function"
    },
    {
      "inputs": [
        {
          "internalType": "address",
          "name": "owner",
          "type": "address"
        }
      ],
      "name": "balanceOf",
      "outputs": [
        {
          "internalType": "uint256",
          "name": "",
          "type": "uint256"
        }
      ],
      "stateMutability": "view",
      "type": "function"
    },
    {
      "inputs": [],
      "name": "collectionName",
      "outputs": [
        {
          "internalType": "string",
          "name": "",
          "type": "string"
        }
      ],
      "stateMutability": "view",
      "type": "function"
    },
    {
      "inputs": [],
      "name": "collectionSymbol",
      "outputs": [
        {
          "internalType": "string",
          "name": "",
          "type": "string"
        }
      ],
      "stateMutability": "view",
      "type": "function"
    },
    {
      "inputs": [],
      "name": "createNFT",
      "outputs": [
        {
          "internalType": "uint256",
          "name": "",
          "type": "uint256"
        }
      ],
      "stateMutability": "nonpayable",
      "type": "function"
    },
    {
      "inputs": [
        {
          "internalType": "uint256",
          "name": "tokenId",
          "type": "uint256"
        }
      ],
      "name": "getApproved",
      "outputs": [
        {
          "internalType": "address",
          "name": "",
          "type": "address"
        }
      ],
      "stateMutability": "view",
      "type": "function"
    },
    {
      "inputs": [],
      "name": "getMyNFT",
      "outputs": [
        {
          "components": [
            {
              "internalType": "uint256",
              "name": "tokenId",
              "type": "uint256"
            },
            {
              "internalType": "address",
              "name": "owner",
              "type": "address"
            },
            {
              "internalType": "string",
              "name": "tokenUri",
              "type": "string"
            }
          ],
          "internalType": "struct NFT.nftItem[]",
          "name": "",
          "type": "tuple[]"
        }
      ],
      "stateMutability": "view",
      "type": "function"
    },
    {
      "inputs": [
        {
          "internalType": "address",
          "name": "owner",
          "type": "address"
        },
        {
          "internalType": "address",
          "name": "operator",
          "type": "address"
        }
      ],
      "name": "isApprovedForAll",
      "outputs": [
        {
          "internalType": "bool",
          "name": "",
          "type": "bool"
        }
      ],
      "stateMutability": "view",
      "type": "function"
    },
    {
      "inputs": [],
      "name": "name",
      "outputs": [
        {
          "internalType": "string",
          "name": "",
          "type": "string"
        }
      ],
      "stateMutability": "view",
      "type": "function"
    },
    {
      "inputs": [
        {
          "internalType": "uint256",
          "name": "tokenId",
          "type": "uint256"
        }
      ],
      "name": "ownerOf",
      "outputs": [
        {
          "internalType": "address",
          "name": "",
          "type": "address"
        }
      ],
      "stateMutability": "view",
      "type": "function"
    },
    {
      "inputs": [
        {
          "internalType": "uint256",
          "name": "tokenId",
          "type": "uint256"
        }
      ],
      "name": "pickFirstWord",
      "outputs": [
        {
          "internalType": "string",
          "name": "",
          "type": "string"
        }
      ],
      "stateMutability": "view",
      "type": "function"
    },
    {
      "inputs": [
        {
          "internalType": "uint256",
          "name": "tokenId",
          "type": "uint256"
        }
      ],
      "name": "pickSecondWord",
      "outputs": [
        {
          "internalType": "string",
          "name": "",
          "type": "string"
        }
      ],
      "stateMutability": "view",
      "type": "function"
    },
    {
      "inputs": [
        {
          "internalType": "uint256",
          "name": "tokenId",
          "type": "uint256"
        }
      ],
      "name": "pickThirdWord",
      "outputs": [
        {
          "internalType": "string",
          "name": "",
          "type": "string"
        }
      ],
      "stateMutability": "view",
      "type": "function"
    },
    {
      "inputs": [
        {
          "internalType": "address",
          "name": "from",
          "type": "address"
        },
        {
          "internalType": "address",
          "name": "to",
          "type": "address"
        },
        {
          "internalType": "uint256",
          "name": "tokenId",
          "type": "uint256"
        }
      ],
      "name": "safeTransferFrom",
      "outputs": [],
      "stateMutability": "nonpayable",
      "type": "function"
    },
    {
      "inputs": [
        {
          "internalType": "address",
          "name": "from",
          "type": "address"
        },
        {
          "internalType": "address",
          "name": "to",
          "type": "address"
        },
        {
          "internalType": "uint256",
          "name": "tokenId",
          "type": "uint256"
        },
        {
          "internalType": "bytes",
          "name": "_data",
          "type": "bytes"
        }
      ],
      "name": "safeTransferFrom",
      "outputs": [],
      "stateMutability": "nonpayable",
      "type": "function"
    },
    {
      "inputs": [
        {
          "internalType": "address",
          "name": "operator",
          "type": "address"
        },
        {
          "internalType": "bool",
          "name": "approved",
          "type": "bool"
        }
      ],
      "name": "setApprovalForAll",
      "outputs": [],
      "stateMutability": "nonpayable",
      "type": "function"
    },
    {
      "inputs": [
        {
          "internalType": "bytes4",
          "name": "interfaceId",
          "type": "bytes4"
        }
      ],
      "name": "supportsInterface",
      "outputs": [
        {
          "internalType": "bool",
          "name": "",
          "type": "bool"
        }
      ],
      "stateMutability": "view",
      "type": "function"
    },
    {
      "inputs": [],
      "name": "symbol",
      "outputs": [
        {
          "internalType": "string",
          "name": "",
          "type": "string"
        }
      ],
      "stateMutability": "view",
      "type": "function"
    },
    {
      "inputs": [
        {
          "internalType": "uint256",
          "name": "tokenId",
          "type": "uint256"
        }
      ],
      "name": "tokenURI",
      "outputs": [
        {
          "internalType": "string",
          "name": "",
          "type": "string"
        }
      ],
      "stateMutability": "view",
      "type": "function"
    },
    {
      "inputs": [
        {
          "internalType": "address",
          "name": "from",
          "type": "address"
        },
        {
          "internalType": "address",
          "name": "to",
          "type": "address"
        },
        {
          "internalType": "uint256",
          "name": "tokenId",
          "type": "uint256"
        }
      ],
      "name": "transferFrom",
      "outputs": [],
      "stateMutability": "nonpayable",
      "type": "function"
    }
  ],
  "bytecode": "0x608060405260405180610160016040528061012f81526020016200540661012f9139600d908051906020019062000038929190620011ef565b506040518061018001604052806040518060400160405280600581526020017f466972652000000000000000000000000000000000000000000000000000000081525081526020016040518060400160405280600481526020017f416972200000000000000000000000000000000000000000000000000000000081525081526020016040518060400160405280600681526020017f576174657220000000000000000000000000000000000000000000000000000081525081526020016040518060400160405280600681526020017f456172746820000000000000000000000000000000000000000000000000000081525081526020016040518060400160405280600681526020017f4c6967687420000000000000000000000000000000000000000000000000000081525081526020016040518060400160405280600781526020017f536861646f77200000000000000000000000000000000000000000000000000081525081526020016040518060400160405280600881526020017f5468756e6465722000000000000000000000000000000000000000000000000081525081526020016040518060400160405280600581526020017f566f69642000000000000000000000000000000000000000000000000000000081525081526020016040518060400160405280600581526020017f54696d652000000000000000000000000000000000000000000000000000000081525081526020016040518060400160405280600881526020017f477261766974792000000000000000000000000000000000000000000000000081525081526020016040518060400160405280600681526020017f506c616e7420000000000000000000000000000000000000000000000000000081525081526020016040518060400160405280600981526020017f456c656374726963200000000000000000000000000000000000000000000000815250815250600e90600c6200031992919062001280565b506040518061026001604052806040518060400160405280600581526020017f53776f726400000000000000000000000000000000000000000000000000000081525081526020016040518060400160405280600581526020017f537065617200000000000000000000000000000000000000000000000000000081525081526020016040518060400160405280600681526020017f536379746865000000000000000000000000000000000000000000000000000081525081526020016040518060400160405280600481526020017f4d6163650000000000000000000000000000000000000000000000000000000081525081526020016040518060400160405280600681526020017f446167676572000000000000000000000000000000000000000000000000000081525081526020016040518060400160405280600481526020017f546f6d650000000000000000000000000000000000000000000000000000000081525081526020016040518060400160405280600481526020017f446172740000000000000000000000000000000000000000000000000000000081525081526020016040518060400160405280600481526020017f486f726e0000000000000000000000000000000000000000000000000000000081525081526020016040518060400160405280600681526020017f4b6174616e61000000000000000000000000000000000000000000000000000081525081526020016040518060400160405280600581526020017f476c6f766500000000000000000000000000000000000000000000000000000081525081526020016040518060400160405280600581526020017f426c61646500000000000000000000000000000000000000000000000000000081525081526020016040518060400160405280600581526020017f536162657200000000000000000000000000000000000000000000000000000081525081526020016040518060400160405280600381526020017f417865000000000000000000000000000000000000000000000000000000000081525081526020016040518060400160405280600381526020017f426f77000000000000000000000000000000000000000000000000000000000081525081526020016040518060400160405280600581526020017f537461666600000000000000000000000000000000000000000000000000000081525081526020016040518060400160405280600481526020017f57616e640000000000000000000000000000000000000000000000000000000081525081526020016040518060400160405280600481526020017f466973740000000000000000000000000000000000000000000000000000000081525081526020016040518060400160405280600681526020017f536869656c64000000000000000000000000000000000000000000000000000081525081526020016040518060400160405280600681526020017f48616d6d65720000000000000000000000000000000000000000000000000000815250815250600f90601362000797929190620012e7565b506040518061042001604052806040518060400160405280600981526020017f556e636f6d6d6f6e20000000000000000000000000000000000000000000000081525081526020016040518060400160405280600981526020017f556e636f6d6d6f6e20000000000000000000000000000000000000000000000081525081526020016040518060400160405280600981526020017f556e636f6d6d6f6e20000000000000000000000000000000000000000000000081525081526020016040518060400160405280600981526020017f556e636f6d6d6f6e20000000000000000000000000000000000000000000000081525081526020016040518060400160405280600981526020017f556e636f6d6d6f6e20000000000000000000000000000000000000000000000081525081526020016040518060400160405280600981526020017f556e636f6d6d6f6e20000000000000000000000000000000000000000000000081525081526020016040518060400160405280600981526020017f556e636f6d6d6f6e20000000000000000000000000000000000000000000000081525081526020016040518060400160405280600981526020017f556e636f6d6d6f6e20000000000000000000000000000000000000000000000081525081526020016040518060400160405280600981526020017f556e636f6d6d6f6e20000000000000000000000000000000000000000000000081525081526020016040518060400160405280600981526020017f556e636f6d6d6f6e20000000000000000000000000000000000000000000000081525081526020016040518060400160405280600981526020017f556e636f6d6d6f6e20000000000000000000000000000000000000000000000081525081526020016040518060400160405280600981526020017f556e636f6d6d6f6e20000000000000000000000000000000000000000000000081525081526020016040518060400160405280600881526020017f556e636f6d6d6f6e00000000000000000000000000000000000000000000000081525081526020016040518060400160405280600581526020017f526172652000000000000000000000000000000000000000000000000000000081525081526020016040518060400160405280600581526020017f526172652000000000000000000000000000000000000000000000000000000081525081526020016040518060400160405280600581526020017f526172652000000000000000000000000000000000000000000000000000000081525081526020016040518060400160405280600581526020017f526172652000000000000000000000000000000000000000000000000000000081525081526020016040518060400160405280600581526020017f526172652000000000000000000000000000000000000000000000000000000081525081526020016040518060400160405280600581526020017f526172652000000000000000000000000000000000000000000000000000000081525081526020016040518060400160405280600581526020017f526172652000000000000000000000000000000000000000000000000000000081525081526020016040518060400160405280600581526020017f526172652000000000000000000000000000000000000000000000000000000081525081526020016040518060400160405280600581526020017f526172652000000000000000000000000000000000000000000000000000000081525081526020016040518060400160405280600581526020017f526172652000000000000000000000000000000000000000000000000000000081525081526020016040518060400160405280600581526020017f457069632000000000000000000000000000000000000000000000000000000081525081526020016040518060400160405280600581526020017f457069632000000000000000000000000000000000000000000000000000000081525081526020016040518060400160405280600581526020017f457069632000000000000000000000000000000000000000000000000000000081525081526020016040518060400160405280600581526020017f457069632000000000000000000000000000000000000000000000000000000081525081526020016040518060400160405280600581526020017f457069632000000000000000000000000000000000000000000000000000000081525081526020016040518060400160405280600581526020017f457069632000000000000000000000000000000000000000000000000000000081525081526020016040518060400160405280600981526020017f4d7974686963616c20000000000000000000000000000000000000000000000081525081526020016040518060400160405280600981526020017f4d7974686963616c20000000000000000000000000000000000000000000000081525081526020016040518060400160405280600981526020017f4d7974686963616c20000000000000000000000000000000000000000000000081525081526020016040518060400160405280600681526020017f476f646c79200000000000000000000000000000000000000000000000000000815250815250601090602162000f4f9291906200134e565b5034801562000f5d57600080fd5b506040516200553538038062005535833981810160405281019062000f83919062001459565b6040518060400160405280600381526020017f4e465400000000000000000000000000000000000000000000000000000000008152506040518060400160405280600481526020017f454e465400000000000000000000000000000000000000000000000000000000815250816000908051906020019062001007929190620011ef565b50806001908051906020019062001020929190620011ef565b50505080600860006101000a81548173ffffffffffffffffffffffffffffffffffffffff021916908373ffffffffffffffffffffffffffffffffffffffff16021790555062001074620010bb60201b60201c565b600990805190602001906200108b929190620011ef565b506200109c6200115560201b60201c565b600a9080519060200190620010b3929190620011ef565b505062001538565b606060008054620010cc90620014b9565b80601f0160208091040260200160405190810160405280929190818152602001828054620010fa90620014b9565b80156200114b5780601f106200111f576101008083540402835291602001916200114b565b820191906000526020600020905b8154815290600101906020018083116200112d57829003601f168201915b5050505050905090565b6060600180546200116690620014b9565b80601f01602080910402602001604051908101604052809291908181526020018280546200119490620014b9565b8015620011e55780601f10620011b957610100808354040283529160200191620011e5565b820191906000526020600020905b815481529060010190602001808311620011c757829003601f168201915b5050505050905090565b828054620011fd90620014b9565b90600052602060002090601f0160209004810192826200122157600085556200126d565b82601f106200123c57805160ff19168380011785556200126d565b828001600101855582156200126d579182015b828111156200126c5782518255916020019190600101906200124f565b5b5090506200127c9190620013b5565b5090565b828054828255906000526020600020908101928215620012d4579160200282015b82811115620012d3578251829080519060200190620012c2929190620011ef565b5091602001919060010190620012a1565b5b509050620012e39190620013d4565b5090565b8280548282559060005260206000209081019282156200133b579160200282015b828111156200133a57825182908051906020019062001329929190620011ef565b509160200191906001019062001308565b5b5090506200134a9190620013d4565b5090565b828054828255906000526020600020908101928215620013a2579160200282015b82811115620013a157825182908051906020019062001390929190620011ef565b50916020019190600101906200136f565b5b509050620013b19190620013d4565b5090565b5b80821115620013d0576000816000905550600101620013b6565b5090565b5b80821115620013f85760008181620013ee9190620013fc565b50600101620013d5565b5090565b5080546200140a90620014b9565b6000825580601f106200141e57506200143f565b601f0160209004906000526020600020908101906200143e9190620013b5565b5b50565b60008151905062001453816200151e565b92915050565b6000602082840312156200146c57600080fd5b60006200147c8482850162001442565b91505092915050565b6000620014928262001499565b9050919050565b600073ffffffffffffffffffffffffffffffffffffffff82169050919050565b60006002820490506001821680620014d257607f821691505b60208210811415620014e957620014e8620014ef565b5b50919050565b7f4e487b7100000000000000000000000000000000000000000000000000000000600052602260045260246000fd5b620015298162001485565b81146200153557600080fd5b50565b613ebe80620015486000396000f3fe608060405234801561001057600080fd5b506004361061012c5760003560e01c80638a97ec2a116100ad578063c87b56dd11610071578063c87b56dd14610355578063cad7d03314610385578063e2d2c308146103a3578063e5326ab1146103d3578063e985e9c5146103f15761012c565b80638a97ec2a146102b157806395d89b41146102cf578063a22cb465146102ed578063b88d4fde14610309578063c6303386146103255761012c565b80632f39352a116100f45780632f39352a146101e75780633bad0d361461020557806342842e0e146102355780636352211e1461025157806370a08231146102815761012c565b806301ffc9a71461013157806306fdde0314610161578063081812fc1461017f578063095ea7b3146101af57806323b872dd146101cb575b600080fd5b61014b600480360381019061014691906128a2565b610421565b60405161015891906130ef565b60405180910390f35b610169610503565b604051610176919061310a565b60405180910390f35b610199600480360381019061019491906128f4565b610595565b6040516101a69190613066565b60405180910390f35b6101c960048036038101906101c49190612866565b61061a565b005b6101e560048036038101906101e09190612760565b610732565b005b6101ef610792565b6040516101fc919061310a565b60405180910390f35b61021f600480360381019061021a91906128f4565b610820565b60405161022c919061310a565b60405180910390f35b61024f600480360381019061024a9190612760565b61093e565b005b61026b600480360381019061026691906128f4565b61095e565b6040516102789190613066565b60405180910390f35b61029b600480360381019061029691906126fb565b610a10565b6040516102a8919061332c565b60405180910390f35b6102b9610ac8565b6040516102c6919061332c565b60405180910390f35b6102d7610cb9565b6040516102e4919061310a565b60405180910390f35b6103076004803603810190610302919061282a565b610d4b565b005b610323600480360381019061031e91906127af565b610d61565b005b61033f600480360381019061033a91906128f4565b610dc3565b60405161034c919061310a565b60405180910390f35b61036f600480360381019061036a91906128f4565b610ee1565b60405161037c919061310a565b60405180910390f35b61038d611033565b60405161039a91906130cd565b60405180910390f35b6103bd60048036038101906103b891906128f4565b611360565b6040516103ca919061310a565b60405180910390f35b6103db61147e565b6040516103e8919061310a565b60405180910390f35b61040b60048036038101906104069190612724565b61150c565b60405161041891906130ef565b60405180910390f35b60007f80ac58cd000000000000000000000000000000000000000000000000000000007bffffffffffffffffffffffffffffffffffffffffffffffffffffffff1916827bffffffffffffffffffffffffffffffffffffffffffffffffffffffff191614806104ec57507f5b5e139f000000000000000000000000000000000000000000000000000000007bffffffffffffffffffffffffffffffffffffffffffffffffffffffff1916827bffffffffffffffffffffffffffffffffffffffffffffffffffffffff1916145b806104fc57506104fb826115a0565b5b9050919050565b6060600080546105129061360a565b80601f016020809104026020016040519081016040528092919081815260200182805461053e9061360a565b801561058b5780601f106105605761010080835404028352916020019161058b565b820191906000526020600020905b81548152906001019060200180831161056e57829003601f168201915b5050505050905090565b60006105a08261160a565b6105df576040517f08c379a00000000000000000000000000000000000000000000000000000000081526004016105d6906132ac565b60405180910390fd5b6004600083815260200190815260200160002060009054906101000a900473ffffffffffffffffffffffffffffffffffffffff169050919050565b60006106258261095e565b90508073ffffffffffffffffffffffffffffffffffffffff168373ffffffffffffffffffffffffffffffffffffffff161415610696576040517f08c379a000000000000000000000000000000000000000000000000000000000815260040161068d906132ec565b60405180910390fd5b8073ffffffffffffffffffffffffffffffffffffffff166106b5611676565b73ffffffffffffffffffffffffffffffffffffffff1614806106e457506106e3816106de611676565b61150c565b5b610723576040517f08c379a000000000000000000000000000000000000000000000000000000000815260040161071a906131ec565b60405180910390fd5b61072d838361167e565b505050565b61074361073d611676565b82611737565b610782576040517f08c379a00000000000000000000000000000000000000000000000000000000081526004016107799061330c565b60405180910390fd5b61078d838383611815565b505050565b600a805461079f9061360a565b80601f01602080910402602001604051908101604052809291908181526020018280546107cb9061360a565b80156108185780601f106107ed57610100808354040283529160200191610818565b820191906000526020600020905b8154815290600101906020018083116107fb57829003601f168201915b505050505081565b6060600061085461083084611a7c565b6040516020016108409190613022565b604051602081830303815290604052611c29565b9050600e805490508161086791906136b6565b9050600e81815481106108a3577f4e487b7100000000000000000000000000000000000000000000000000000000600052603260045260246000fd5b9060005260206000200180546108b89061360a565b80601f01602080910402602001604051908101604052809291908181526020018280546108e49061360a565b80156109315780601f1061090657610100808354040283529160200191610931565b820191906000526020600020905b81548152906001019060200180831161091457829003601f168201915b5050505050915050919050565b61095983838360405180602001604052806000815250610d61565b505050565b6000806002600084815260200190815260200160002060009054906101000a900473ffffffffffffffffffffffffffffffffffffffff169050600073ffffffffffffffffffffffffffffffffffffffff168173ffffffffffffffffffffffffffffffffffffffff161415610a07576040517f08c379a00000000000000000000000000000000000000000000000000000000081526004016109fe9061322c565b60405180910390fd5b80915050919050565b60008073ffffffffffffffffffffffffffffffffffffffff168273ffffffffffffffffffffffffffffffffffffffff161415610a81576040517f08c379a0000000000000000000000000000000000000000000000000000000008152600401610a789061320c565b60405180910390fd5b600360008373ffffffffffffffffffffffffffffffffffffffff1673ffffffffffffffffffffffffffffffffffffffff168152602001908152602001600020549050919050565b600080610ad56007611c5c565b90506000610ae282610820565b90506000610aef83610dc3565b90506000610afc84611360565b90506000838383604051602001610b1593929190612f1f565b60405160208183030381529060405290506000600d858585604051602001610b409493929190612f50565b60405160208183030381529060405290506000610b8583610b6084611c6a565b604051602001610b71929190612fdd565b604051602081830303815290604052611c6a565b9050600081604051602001610b9a9190613044565b6040516020818303038152906040529050610bb53389611e28565b610bbf8882611e46565b610bec600860009054906101000a900473ffffffffffffffffffffffffffffffffffffffff166001610d4b565b60405180606001604052808981526020013373ffffffffffffffffffffffffffffffffffffffff16815260200182815250600c60008a81526020019081526020016000206000820151816000015560208201518160010160006101000a81548173ffffffffffffffffffffffffffffffffffffffff021916908373ffffffffffffffffffffffffffffffffffffffff1602179055506040820151816002019080519060200190610c9d929190612550565b50905050610cab6007611eba565b879850505050505050505090565b606060018054610cc89061360a565b80601f0160208091040260200160405190810160405280929190818152602001828054610cf49061360a565b8015610d415780601f10610d1657610100808354040283529160200191610d41565b820191906000526020600020905b815481529060010190602001808311610d2457829003601f168201915b5050505050905090565b610d5d610d56611676565b8383611ed0565b5050565b610d72610d6c611676565b83611737565b610db1576040517f08c379a0000000000000000000000000000000000000000000000000000000008152600401610da89061330c565b60405180910390fd5b610dbd8484848461203d565b50505050565b60606000610df7610dd384611a7c565b604051602001610de39190612f99565b604051602081830303815290604052611c29565b9050600f8054905081610e0a91906136b6565b9050600f8181548110610e46577f4e487b7100000000000000000000000000000000000000000000000000000000600052603260045260246000fd5b906000526020600020018054610e5b9061360a565b80601f0160208091040260200160405190810160405280929190818152602001828054610e879061360a565b8015610ed45780601f10610ea957610100808354040283529160200191610ed4565b820191906000526020600020905b815481529060010190602001808311610eb757829003601f168201915b5050505050915050919050565b6060610eec8261160a565b610f2b576040517f08c379a0000000000000000000000000000000000000000000000000000000008152600401610f229061328c565b60405180910390fd5b6000600660008481526020019081526020016000208054610f4b9061360a565b80601f0160208091040260200160405190810160405280929190818152602001828054610f779061360a565b8015610fc45780601f10610f9957610100808354040283529160200191610fc4565b820191906000526020600020905b815481529060010190602001808311610fa757829003601f168201915b505050505090506000610fd5612099565b9050600081511415610feb57819250505061102e565b600082511115611020578082604051602001611008929190612efb565b6040516020818303038152906040529250505061102e565b611029846120b0565b925050505b919050565b606060006110416007611c5c565b905060008060005b838110156110de573373ffffffffffffffffffffffffffffffffffffffff16600c600083815260200190815260200160002060010160009054906101000a900473ffffffffffffffffffffffffffffffffffffffff1673ffffffffffffffffffffffffffffffffffffffff1614156110cb576001836110c8919061343f565b92505b80806110d69061366d565b915050611049565b5060008267ffffffffffffffff811115611121577f4e487b7100000000000000000000000000000000000000000000000000000000600052604160045260246000fd5b60405190808252806020026020018201604052801561115a57816020015b6111476125d6565b81526020019060019003908161113f5790505b50905060005b84811015611355573373ffffffffffffffffffffffffffffffffffffffff16600c600083815260200190815260200160002060010160009054906101000a900473ffffffffffffffffffffffffffffffffffffffff1673ffffffffffffffffffffffffffffffffffffffff1614156113425760008190506000600c6000838152602001908152602001600020905080604051806060016040529081600082015481526020016001820160009054906101000a900473ffffffffffffffffffffffffffffffffffffffff1673ffffffffffffffffffffffffffffffffffffffff1673ffffffffffffffffffffffffffffffffffffffff16815260200160028201805461126a9061360a565b80601f01602080910402602001604051908101604052809291908181526020018280546112969061360a565b80156112e35780601f106112b8576101008083540402835291602001916112e3565b820191906000526020600020905b8154815290600101906020018083116112c657829003601f168201915b505050505081525050848681518110611325577f4e487b7100000000000000000000000000000000000000000000000000000000600052603260045260246000fd5b602002602001018190525060018561133d919061343f565b945050505b808061134d9061366d565b915050611160565b508094505050505090565b6060600061139461137084611a7c565b6040516020016113809190612fbb565b604051602081830303815290604052611c29565b9050601080549050816113a791906136b6565b9050601081815481106113e3577f4e487b7100000000000000000000000000000000000000000000000000000000600052603260045260246000fd5b9060005260206000200180546113f89061360a565b80601f01602080910402602001604051908101604052809291908181526020018280546114249061360a565b80156114715780601f1061144657610100808354040283529160200191611471565b820191906000526020600020905b81548152906001019060200180831161145457829003601f168201915b5050505050915050919050565b6009805461148b9061360a565b80601f01602080910402602001604051908101604052809291908181526020018280546114b79061360a565b80156115045780601f106114d957610100808354040283529160200191611504565b820191906000526020600020905b8154815290600101906020018083116114e757829003601f168201915b505050505081565b6000600560008473ffffffffffffffffffffffffffffffffffffffff1673ffffffffffffffffffffffffffffffffffffffff16815260200190815260200160002060008373ffffffffffffffffffffffffffffffffffffffff1673ffffffffffffffffffffffffffffffffffffffff16815260200190815260200160002060009054906101000a900460ff16905092915050565b60007f01ffc9a7000000000000000000000000000000000000000000000000000000007bffffffffffffffffffffffffffffffffffffffffffffffffffffffff1916827bffffffffffffffffffffffffffffffffffffffffffffffffffffffff1916149050919050565b60008073ffffffffffffffffffffffffffffffffffffffff166002600084815260200190815260200160002060009054906101000a900473ffffffffffffffffffffffffffffffffffffffff1673ffffffffffffffffffffffffffffffffffffffff1614159050919050565b600033905090565b816004600083815260200190815260200160002060006101000a81548173ffffffffffffffffffffffffffffffffffffffff021916908373ffffffffffffffffffffffffffffffffffffffff160217905550808273ffffffffffffffffffffffffffffffffffffffff166116f18361095e565b73ffffffffffffffffffffffffffffffffffffffff167f8c5be1e5ebec7d5bd14f71427d1e84f3dd0314c0f7b2291e5b200ac8c7c3b92560405160405180910390a45050565b60006117428261160a565b611781576040517f08c379a0000000000000000000000000000000000000000000000000000000008152600401611778906131cc565b60405180910390fd5b600061178c8361095e565b90508073ffffffffffffffffffffffffffffffffffffffff168473ffffffffffffffffffffffffffffffffffffffff1614806117fb57508373ffffffffffffffffffffffffffffffffffffffff166117e384610595565b73ffffffffffffffffffffffffffffffffffffffff16145b8061180c575061180b818561150c565b5b91505092915050565b8273ffffffffffffffffffffffffffffffffffffffff166118358261095e565b73ffffffffffffffffffffffffffffffffffffffff161461188b576040517f08c379a00000000000000000000000000000000000000000000000000000000081526004016118829061314c565b60405180910390fd5b600073ffffffffffffffffffffffffffffffffffffffff168273ffffffffffffffffffffffffffffffffffffffff1614156118fb576040517f08c379a00000000000000000000000000000000000000000000000000000000081526004016118f29061318c565b60405180910390fd5b611906838383612157565b61191160008261167e565b6001600360008573ffffffffffffffffffffffffffffffffffffffff1673ffffffffffffffffffffffffffffffffffffffff16815260200190815260200160002060008282546119619190613520565b925050819055506001600360008473ffffffffffffffffffffffffffffffffffffffff1673ffffffffffffffffffffffffffffffffffffffff16815260200190815260200160002060008282546119b8919061343f565b92505081905550816002600083815260200190815260200160002060006101000a81548173ffffffffffffffffffffffffffffffffffffffff021916908373ffffffffffffffffffffffffffffffffffffffff160217905550808273ffffffffffffffffffffffffffffffffffffffff168473ffffffffffffffffffffffffffffffffffffffff167fddf252ad1be2c89b69c2b068fc378daa952ba7f163c4a11628f55a4df523b3ef60405160405180910390a4611a7783838361215c565b505050565b60606000821415611ac4576040518060400160405280600181526020017f30000000000000000000000000000000000000000000000000000000000000008152509050611c24565b600082905060005b60008214611af6578080611adf9061366d565b915050600a82611aef9190613495565b9150611acc565b60008167ffffffffffffffff811115611b38577f4e487b7100000000000000000000000000000000000000000000000000000000600052604160045260246000fd5b6040519080825280601f01601f191660200182016040528015611b6a5781602001600182028036833780820191505090505b5090505b60008514611c1d57600182611b839190613520565b9150600a85611b9291906136b6565b6030611b9e919061343f565b60f81b818381518110611bda577f4e487b7100000000000000000000000000000000000000000000000000000000600052603260045260246000fd5b60200101907effffffffffffffffffffffffffffffffffffffffffffffffffffffffffffff1916908160001a905350600a85611c169190613495565b9450611b6e565b8093505050505b919050565b600081604051602001611c3c9190612ee4565b6040516020818303038152906040528051906020012060001c9050919050565b600081600001549050919050565b60606000825190506000811415611c935760405180602001604052806000815250915050611e23565b60006003600283611ca4919061343f565b611cae9190613495565b6004611cba91906134c6565b90506000602082611ccb919061343f565b67ffffffffffffffff811115611d0a577f4e487b7100000000000000000000000000000000000000000000000000000000600052604160045260246000fd5b6040519080825280601f01601f191660200182016040528015611d3c5781602001600182028036833780820191505090505b5090506000604051806060016040528060408152602001613e49604091399050600181016020830160005b86811015611de05760038101905062ffffff818a015116603f8160121c168401518060081b905060ff603f83600c1c1686015116810190508060081b905060ff603f8360061c1686015116810190508060081b905060ff603f831686015116810190508060e01b90508084526004840193505050611d67565b506003860660018114611dfa5760028114611e0a57611e15565b613d3d60f01b6002830352611e15565b603d60f81b60018303525b508484525050819450505050505b919050565b611e42828260405180602001604052806000815250612161565b5050565b611e4f8261160a565b611e8e576040517f08c379a0000000000000000000000000000000000000000000000000000000008152600401611e859061324c565b60405180910390fd5b80600660008481526020019081526020016000209080519060200190611eb5929190612550565b505050565b6001816000016000828254019250508190555050565b8173ffffffffffffffffffffffffffffffffffffffff168373ffffffffffffffffffffffffffffffffffffffff161415611f3f576040517f08c379a0000000000000000000000000000000000000000000000000000000008152600401611f36906131ac565b60405180910390fd5b80600560008573ffffffffffffffffffffffffffffffffffffffff1673ffffffffffffffffffffffffffffffffffffffff16815260200190815260200160002060008473ffffffffffffffffffffffffffffffffffffffff1673ffffffffffffffffffffffffffffffffffffffff16815260200190815260200160002060006101000a81548160ff0219169083151502179055508173ffffffffffffffffffffffffffffffffffffffff168373ffffffffffffffffffffffffffffffffffffffff167f17307eab39ab6107e8899845ad3d59bd9653f200f220920489ca2b5937696c318360405161203091906130ef565b60405180910390a3505050565b612048848484611815565b612054848484846121bc565b612093576040517f08c379a000000000000000000000000000000000000000000000000000000000815260040161208a9061312c565b60405180910390fd5b50505050565b606060405180602001604052806000815250905090565b60606120bb8261160a565b6120fa576040517f08c379a00000000000000000000000000000000000000000000000000000000081526004016120f1906132cc565b60405180910390fd5b6000612104612099565b90506000815111612124576040518060200160405280600081525061214f565b8061212e84611a7c565b60405160200161213f929190612efb565b6040516020818303038152906040525b915050919050565b505050565b505050565b61216b8383612353565b61217860008484846121bc565b6121b7576040517f08c379a00000000000000000000000000000000000000000000000000000000081526004016121ae9061312c565b60405180910390fd5b505050565b60006121dd8473ffffffffffffffffffffffffffffffffffffffff1661252d565b15612346578373ffffffffffffffffffffffffffffffffffffffff1663150b7a02612206611676565b8786866040518563ffffffff1660e01b81526004016122289493929190613081565b602060405180830381600087803b15801561224257600080fd5b505af192505050801561227357506040513d601f19601f8201168201806040525081019061227091906128cb565b60015b6122f6573d80600081146122a3576040519150601f19603f3d011682016040523d82523d6000602084013e6122a8565b606091505b506000815114156122ee576040517f08c379a00000000000000000000000000000000000000000000000000000000081526004016122e59061312c565b60405180910390fd5b805181602001fd5b63150b7a0260e01b7bffffffffffffffffffffffffffffffffffffffffffffffffffffffff1916817bffffffffffffffffffffffffffffffffffffffffffffffffffffffff19161491505061234b565b600190505b949350505050565b600073ffffffffffffffffffffffffffffffffffffffff168273ffffffffffffffffffffffffffffffffffffffff1614156123c3576040517f08c379a00000000000000000000000000000000000000000000000000000000081526004016123ba9061326c565b60405180910390fd5b6123cc8161160a565b1561240c576040517f08c379a00000000000000000000000000000000000000000000000000000000081526004016124039061316c565b60405180910390fd5b61241860008383612157565b6001600360008473ffffffffffffffffffffffffffffffffffffffff1673ffffffffffffffffffffffffffffffffffffffff1681526020019081526020016000206000828254612468919061343f565b92505081905550816002600083815260200190815260200160002060006101000a81548173ffffffffffffffffffffffffffffffffffffffff021916908373ffffffffffffffffffffffffffffffffffffffff160217905550808273ffffffffffffffffffffffffffffffffffffffff16600073ffffffffffffffffffffffffffffffffffffffff167fddf252ad1be2c89b69c2b068fc378daa952ba7f163c4a11628f55a4df523b3ef60405160405180910390a46125296000838361215c565b5050565b6000808273ffffffffffffffffffffffffffffffffffffffff163b119050919050565b82805461255c9061360a565b90600052602060002090601f01602090048101928261257e57600085556125c5565b82601f1061259757805160ff19168380011785556125c5565b828001600101855582156125c5579182015b828111156125c45782518255916020019190600101906125a9565b5b5090506125d2919061260d565b5090565b604051806060016040528060008152602001600073ffffffffffffffffffffffffffffffffffffffff168152602001606081525090565b5b8082111561262657600081600090555060010161260e565b5090565b600061263d6126388461336c565b613347565b90508281526020810184848401111561265557600080fd5b6126608482856135c8565b509392505050565b60008135905061267781613dec565b92915050565b60008135905061268c81613e03565b92915050565b6000813590506126a181613e1a565b92915050565b6000815190506126b681613e1a565b92915050565b600082601f8301126126cd57600080fd5b81356126dd84826020860161262a565b91505092915050565b6000813590506126f581613e31565b92915050565b60006020828403121561270d57600080fd5b600061271b84828501612668565b91505092915050565b6000806040838503121561273757600080fd5b600061274585828601612668565b925050602061275685828601612668565b9150509250929050565b60008060006060848603121561277557600080fd5b600061278386828701612668565b935050602061279486828701612668565b92505060406127a5868287016126e6565b9150509250925092565b600080600080608085870312156127c557600080fd5b60006127d387828801612668565b94505060206127e487828801612668565b93505060406127f5878288016126e6565b925050606085013567ffffffffffffffff81111561281257600080fd5b61281e878288016126bc565b91505092959194509250565b6000806040838503121561283d57600080fd5b600061284b85828601612668565b925050602061285c8582860161267d565b9150509250929050565b6000806040838503121561287957600080fd5b600061288785828601612668565b9250506020612898858286016126e6565b9150509250929050565b6000602082840312156128b457600080fd5b60006128c284828501612692565b91505092915050565b6000602082840312156128dd57600080fd5b60006128eb848285016126a7565b91505092915050565b60006020828403121561290657600080fd5b6000612914848285016126e6565b91505092915050565b60006129298383612e76565b905092915050565b61293a81613554565b82525050565b61294981613554565b82525050565b600061295a826133c2565b61296481856133f0565b9350836020820285016129768561339d565b8060005b858110156129b25784840389528151612993858261291d565b945061299e836133e3565b925060208a0199505060018101905061297a565b50829750879550505050505092915050565b6129cd81613566565b82525050565b60006129de826133cd565b6129e88185613401565b93506129f88185602086016135d7565b612a01816137a3565b840191505092915050565b6000612a17826133d8565b612a218185613412565b9350612a318185602086016135d7565b612a3a816137a3565b840191505092915050565b6000612a50826133d8565b612a5a8185613423565b9350612a6a8185602086016135d7565b612a73816137a3565b840191505092915050565b6000612a89826133d8565b612a938185613434565b9350612aa38185602086016135d7565b80840191505092915050565b60008154612abc8161360a565b612ac68186613434565b94506001821660008114612ae15760018114612af257612b25565b60ff19831686528186019350612b25565b612afb856133ad565b60005b83811015612b1d57815481890152600182019150602081019050612afe565b838801955050505b50505092915050565b6000612b3b603283613423565b9150612b46826137b4565b604082019050919050565b6000612b5e602583613423565b9150612b6982613803565b604082019050919050565b6000612b81601c83613423565b9150612b8c82613852565b602082019050919050565b6000612ba4606183613434565b9150612baf8261387b565b606182019050919050565b6000612bc7600683613434565b9150612bd282613916565b600682019050919050565b6000612bea602483613423565b9150612bf58261393f565b604082019050919050565b6000612c0d601983613423565b9150612c188261398e565b602082019050919050565b6000612c30602c83613423565b9150612c3b826139b7565b604082019050919050565b6000612c53600d83613434565b9150612c5e82613a06565b600d82019050919050565b6000612c76603883613423565b9150612c8182613a2f565b604082019050919050565b6000612c99602a83613423565b9150612ca482613a7e565b604082019050919050565b6000612cbc602983613423565b9150612cc782613acd565b604082019050919050565b6000612cdf602e83613423565b9150612cea82613b1c565b604082019050919050565b6000612d02600483613434565b9150612d0d82613b6b565b600482019050919050565b6000612d25600283613434565b9150612d3082613b94565b600282019050919050565b6000612d48602083613423565b9150612d5382613bbd565b602082019050919050565b6000612d6b603183613423565b9150612d7682613be6565b604082019050919050565b6000612d8e602c83613423565b9150612d9982613c35565b604082019050919050565b6000612db1602f83613423565b9150612dbc82613c84565b604082019050919050565b6000612dd4600a83613434565b9150612ddf82613cd3565b600a82019050919050565b6000612df7600783613434565b9150612e0282613cfc565b600782019050919050565b6000612e1a602183613423565b9150612e2582613d25565b604082019050919050565b6000612e3d601d83613434565b9150612e4882613d74565b601d82019050919050565b6000612e60603183613423565b9150612e6b82613d9d565b604082019050919050565b6000606083016000830151612e8e6000860182612ec6565b506020830151612ea16020860182612931565b5060408301518482036040860152612eb98282612a0c565b9150508091505092915050565b612ecf816135be565b82525050565b612ede816135be565b82525050565b6000612ef08284612a7e565b915081905092915050565b6000612f078285612a7e565b9150612f138284612a7e565b91508190509392505050565b6000612f2b8286612a7e565b9150612f378285612a7e565b9150612f438284612a7e565b9150819050949350505050565b6000612f5c8287612aaf565b9150612f688286612a7e565b9150612f748285612a7e565b9150612f808284612a7e565b9150612f8b82612c46565b915081905095945050505050565b6000612fa482612bba565b9150612fb08284612a7e565b915081905092915050565b6000612fc682612cf5565b9150612fd28284612a7e565b915081905092915050565b6000612fe882612dc7565b9150612ff48285612a7e565b9150612fff82612b97565b915061300b8284612a7e565b915061301682612d18565b91508190509392505050565b600061302d82612dea565b91506130398284612a7e565b915081905092915050565b600061304f82612e30565b915061305b8284612a7e565b915081905092915050565b600060208201905061307b6000830184612940565b92915050565b60006080820190506130966000830187612940565b6130a36020830186612940565b6130b06040830185612ed5565b81810360608301526130c281846129d3565b905095945050505050565b600060208201905081810360008301526130e7818461294f565b905092915050565b600060208201905061310460008301846129c4565b92915050565b600060208201905081810360008301526131248184612a45565b905092915050565b6000602082019050818103600083015261314581612b2e565b9050919050565b6000602082019050818103600083015261316581612b51565b9050919050565b6000602082019050818103600083015261318581612b74565b9050919050565b600060208201905081810360008301526131a581612bdd565b9050919050565b600060208201905081810360008301526131c581612c00565b9050919050565b600060208201905081810360008301526131e581612c23565b9050919050565b6000602082019050818103600083015261320581612c69565b9050919050565b6000602082019050818103600083015261322581612c8c565b9050919050565b6000602082019050818103600083015261324581612caf565b9050919050565b6000602082019050818103600083015261326581612cd2565b9050919050565b6000602082019050818103600083015261328581612d3b565b9050919050565b600060208201905081810360008301526132a581612d5e565b9050919050565b600060208201905081810360008301526132c581612d81565b9050919050565b600060208201905081810360008301526132e581612da4565b9050919050565b6000602082019050818103600083015261330581612e0d565b9050919050565b6000602082019050818103600083015261332581612e53565b9050919050565b60006020820190506133416000830184612ed5565b92915050565b6000613351613362565b905061335d828261363c565b919050565b6000604051905090565b600067ffffffffffffffff82111561338757613386613774565b5b613390826137a3565b9050602081019050919050565b6000819050602082019050919050565b60008190508160005260206000209050919050565b600081519050919050565b600081519050919050565b600081519050919050565b6000602082019050919050565b600082825260208201905092915050565b600082825260208201905092915050565b600082825260208201905092915050565b600082825260208201905092915050565b600081905092915050565b600061344a826135be565b9150613455836135be565b9250827fffffffffffffffffffffffffffffffffffffffffffffffffffffffffffffffff0382111561348a576134896136e7565b5b828201905092915050565b60006134a0826135be565b91506134ab836135be565b9250826134bb576134ba613716565b5b828204905092915050565b60006134d1826135be565b91506134dc836135be565b9250817fffffffffffffffffffffffffffffffffffffffffffffffffffffffffffffffff0483118215151615613515576135146136e7565b5b828202905092915050565b600061352b826135be565b9150613536836135be565b925082821015613549576135486136e7565b5b828203905092915050565b600061355f8261359e565b9050919050565b60008115159050919050565b60007fffffffff0000000000000000000000000000000000000000000000000000000082169050919050565b600073ffffffffffffffffffffffffffffffffffffffff82169050919050565b6000819050919050565b82818337600083830152505050565b60005b838110156135f55780820151818401526020810190506135da565b83811115613604576000848401525b50505050565b6000600282049050600182168061362257607f821691505b6020821081141561363657613635613745565b5b50919050565b613645826137a3565b810181811067ffffffffffffffff8211171561366457613663613774565b5b80604052505050565b6000613678826135be565b91507fffffffffffffffffffffffffffffffffffffffffffffffffffffffffffffffff8214156136ab576136aa6136e7565b5b600182019050919050565b60006136c1826135be565b91506136cc836135be565b9250826136dc576136db613716565b5b828206905092915050565b7f4e487b7100000000000000000000000000000000000000000000000000000000600052601160045260246000fd5b7f4e487b7100000000000000000000000000000000000000000000000000000000600052601260045260246000fd5b7f4e487b7100000000000000000000000000000000000000000000000000000000600052602260045260246000fd5b7f4e487b7100000000000000000000000000000000000000000000000000000000600052604160045260246000fd5b6000601f19601f8301169050919050565b7f4552433732313a207472616e7366657220746f206e6f6e20455243373231526560008201527f63656976657220696d706c656d656e7465720000000000000000000000000000602082015250565b7f4552433732313a207472616e736665722066726f6d20696e636f72726563742060008201527f6f776e6572000000000000000000000000000000000000000000000000000000602082015250565b7f4552433732313a20746f6b656e20616c7265616479206d696e74656400000000600082015250565b7f222c20226465736372697074696f6e223a20224120686967686c79206163636c60008201527f61696d656420636f6c6c656374696f6e202057617272696f7273222c2022696d60208201527f616765223a2022646174613a696d6167652f7376672b786d6c3b62617365363460408201527f2c00000000000000000000000000000000000000000000000000000000000000606082015250565b7f776561706f6e0000000000000000000000000000000000000000000000000000600082015250565b7f4552433732313a207472616e7366657220746f20746865207a65726f2061646460008201527f7265737300000000000000000000000000000000000000000000000000000000602082015250565b7f4552433732313a20617070726f766520746f2063616c6c657200000000000000600082015250565b7f4552433732313a206f70657261746f7220717565727920666f72206e6f6e657860008201527f697374656e7420746f6b656e0000000000000000000000000000000000000000602082015250565b7f3c2f746578743e3c2f7376673e00000000000000000000000000000000000000600082015250565b7f4552433732313a20617070726f76652063616c6c6572206973206e6f74206f7760008201527f6e6572206e6f7220617070726f76656420666f7220616c6c0000000000000000602082015250565b7f4552433732313a2062616c616e636520717565727920666f7220746865207a6560008201527f726f206164647265737300000000000000000000000000000000000000000000602082015250565b7f4552433732313a206f776e657220717565727920666f72206e6f6e657869737460008201527f656e7420746f6b656e0000000000000000000000000000000000000000000000602082015250565b7f45524337323155524953746f726167653a2055524920736574206f66206e6f6e60008201527f6578697374656e7420746f6b656e000000000000000000000000000000000000602082015250565b7f72616e6b00000000000000000000000000000000000000000000000000000000600082015250565b7f227d000000000000000000000000000000000000000000000000000000000000600082015250565b7f4552433732313a206d696e7420746f20746865207a65726f2061646472657373600082015250565b7f45524337323155524953746f726167653a2055524920717565727920666f722060008201527f6e6f6e6578697374656e7420746f6b656e000000000000000000000000000000602082015250565b7f4552433732313a20617070726f76656420717565727920666f72206e6f6e657860008201527f697374656e7420746f6b656e0000000000000000000000000000000000000000602082015250565b7f4552433732314d657461646174613a2055524920717565727920666f72206e6f60008201527f6e6578697374656e7420746f6b656e0000000000000000000000000000000000602082015250565b7f7b226e616d65223a202200000000000000000000000000000000000000000000600082015250565b7f656c656d656e7400000000000000000000000000000000000000000000000000600082015250565b7f4552433732313a20617070726f76616c20746f2063757272656e74206f776e6560008201527f7200000000000000000000000000000000000000000000000000000000000000602082015250565b7f646174613a6170706c69636174696f6e2f6a736f6e3b6261736536342c000000600082015250565b7f4552433732313a207472616e736665722063616c6c6572206973206e6f74206f60008201527f776e6572206e6f7220617070726f766564000000000000000000000000000000602082015250565b613df581613554565b8114613e0057600080fd5b50565b613e0c81613566565b8114613e1757600080fd5b50565b613e2381613572565b8114613e2e57600080fd5b50565b613e3a816135be565b8114613e4557600080fd5b5056fe4142434445464748494a4b4c4d4e4f505152535455565758595a6162636465666768696a6b6c6d6e6f707172737475767778797a303132333435363738392b2fa26469706673582212202050f3d188b4d9125e5397a1497bf57601fd6692ec382a919158dc5b4884244464736f6c634300080300333c73766720786d6c6e733d27687474703a2f2f7777772e77332e6f72672f323030302f73766727207072657365727665417370656374526174696f3d27784d696e594d696e206d656574272076696577426f783d273020302033353020333530273e3c7374796c653e2e62617365207b2066696c6c3a2077686974653b20666f6e742d66616d696c793a2073657269663b20666f6e742d73697a653a20323470783b207d3c2f7374796c653e3c726563742077696474683d273130302527206865696768743d2731303025272066696c6c3d27626c61636b27202f3e3c7465787420783d273530252720793d273530252720636c6173733d27626173652720646f6d696e616e742d626173656c696e653d276d6964646c652720746578742d616e63686f723d276d6964646c65273e",
  "linkReferences": {},
  "deployedLinkReferences": {}
}